:020000040800F2
:100000000080012091240008552300085B2300088C
:1000100061230008672300086D230008000000002A
:100020000000000000000000000000007323000832
:1000300081230008000000008F2300089D23000892
:10004000E1240008E1240008E1240008E12400087C
:10005000E1240008E1240008E1240008A9230008A5
:10006000B7230008E1240008C5230008E1240008A4
:10007000E1240008E1240008E1240008E12400084C
:10008000E1240008E1240008E12400080000000049
:10009000000000000000000000000000D323000862
:1000A000E1240008E1240008E1240008E12400081C
:1000B000E1240008E1240008E1240008E12400080C
:1000C000E1240008E1240008E1240008E1240008FC
:1000D000E1240008E1240008E124000800000000F9
:1000E000E7230008E1240008E124000800000000E4
:1000F000000000000000000000000000E1240008F3
:1001000000000000E1240008E1240008E1240008C8
:1001100000000000000000000000000000000000DF
:10012000E1240008E1240008E1240008E12400089B
:10013000E1240008000000000000000000000000B2
:10014000000000000000000000000000E1240008A2
:10015000E1240008E1240008E1240008E12400086B
:10016000E1240008E1240008000000000000000075
:10017000000000000000000000000000000000007F
:1001800000000000E1240008000000000000000062
:04019000E12400085E
:1001A00010B5054C237833B9044B13B10448AFF3B1
:1001B00000800123237010BDAC000020000000006F
:1001C0006451000808B5034B1BB103490348AFF362
:1001D000008008BD00000000B0000020645100084D
:1001E00001F0FF01102A2BDB10F0070F08D010F8E8
:1001F000013B013A8B422DD010F0070F42B3F6D1EC
:10020000F0B441EA012141EA014122F007047FF004
:1002100000070023F0E80256083C85EA010586EA5B
:10022000010685FA47F5A3FA87F586FA47F6A5FA97
:1002300087F68EB9EED1F0BC01F0FF0102F00702A3
:1002400032B110F8013B013A83EA010313B1F8D14E
:100250000020704701387047002D06BF354603382F
:10026000073815F0010F07D1013015F4807F02BF68
:10027000013015F4C03F0130F0BC0138704700BFB9
:1002800081F0004102E000BF83F0004330B54FEA47
:1002900041044FEA430594EA050F08BF90EA020FB4
:1002A0001FBF54EA000C55EA020C7FEA645C7FEA47
:1002B000655C00F0E2804FEA5454D4EB5555B8BF6A
:1002C0006D420CDD2C4480EA020281EA030382EADB
:1002D000000083EA010180EA020281EA0303362D6D
:1002E00088BF30BD11F0004F4FEA01314FF4801C40
:1002F0004CEA113102D0404261EB410113F0004F52
:100300004FEA03334CEA133302D0524263EB430308
:1003100094EA050F00F0A780A4F10104D5F1200EA6
:100320000DDB02FA0EFC22FA05F2801841F1000101
:1003300003FA0EF2801843FA05F359410EE0A5F1D5
:1003400020050EF1200E012A03FA0EFC28BF4CF006
:10035000020C43FA05F3C01851EBE37101F00045BC
:1003600007D54FF0000EDCF1000C7EEB00006EEBC9
:100370000101B1F5801F1BD3B1F5001F0CD3490853
:100380005FEA30004FEA3C0C04F101044FEA4452AA
:1003900012F5800F80F09A80BCF1004F08BF5FEA31
:1003A000500C50F1000041EB045141EA050130BD11
:1003B0005FEA4C0C404141EB010111F4801FA4F1B4
:1003C0000104E9D191F0000F04BF01460020B1FA09
:1003D00081F308BF2033A3F10B03B3F120020CDA41
:1003E0000C3208DD02F1140CC2F10C0201FA0CF01F
:1003F00021FA02F10CE002F11402D8BFC2F1200C84
:1004000001FA02F120FA0CFCDCBF41EA0C01904039
:10041000E41AA2BF01EB0451294330BD6FEA040482
:100420001F3C1CDA0C340EDC04F11404C4F120026D
:1004300020FA04F001FA02F340EA030021FA04F37F
:1004400045EA030130BDC4F10C04C4F1200220FAD6
:1004500002F001FA04F340EA0300294630BD21FA14
:1004600004F0294630BD94F0000F83F4801306BFDA
:1004700081F480110134013D4EE77FEA645C18BFCE
:100480007FEA655C29D094EA050F08BF90EA020F65
:1004900005D054EA000C04BF1946104630BD91EA5D
:1004A000030F1EBF0021002030BD5FEA545C05D160
:1004B0004000494128BF41F0004130BD14F580049F
:1004C0003CBF01F5801130BD01F0004545F0FE4113
:1004D00041F470014FF0000030BD7FEA645C1ABF48
:1004E000194610467FEA655C1CBF0B46024650EA7F
:1004F000013406BF52EA033591EA030F41F40021AB
:1005000030BD00BF90F0000F04BF0021704730B530
:100510004FF4806404F132044FF000054FF0000105
:1005200050E700BF90F0000F04BF0021704730B5C6
:100530004FF4806404F1320410F0004548BF40429B
:100540004FF000013EE700BF42004FEAE2014FEAF0
:1005500031014FEA02701FBF12F07F4393F07F4FCB
:1005600081F06051704732F07F4208BF704793F0CE
:100570007F4F04BF41F40021704730B54FF46074E1
:1005800001F0004521F000411CE700BF50EA0102E4
:1005900008BF704730B54FF000050AE050EA01028D
:1005A00008BF704730B511F0004502D5404261EBFD
:1005B00041014FF4806404F132045FEA915C3FF43E
:1005C000D8AE4FF003025FEADC0C18BF03325FEADB
:1005D000DC0C18BF033202EBDC02C2F1200300FA8C
:1005E00003FC20FA02F001FA03FE40EA0E0021FAB1
:1005F00002F11444BDE600BF70B54FF0FF0C4CF49F
:10060000E06C1CEA11541DBF1CEA135594EA0C0F50
:1006100095EA0C0F00F0DEF82C4481EA030621EA8B
:100620004C5123EA4C5350EA013518BF52EA0335C6
:1006300041F4801143F4801338D0A0FB02CE4FF078
:100640000005E1FB02E506F00042E0FB03E54FF0A8
:100650000006E1FB03569CF0000F18BF4EF0010EA0
:10066000A4F1FF04B6F5007F64F5407404D25FEA9C
:100670004E0E6D4146EB060642EAC62141EA55514F
:100680004FEAC52040EA5E504FEACE2EB4F1FD0C91
:1006900088BFBCF5E06F1ED8BEF1004F08BF5FEA0F
:1006A000500E50F1000041EB045170BD06F00046C1
:1006B00046EA010140EA020081EA0301B4EB5C046E
:1006C000C2BFD4EB0C0541EA045170BD41F4801166
:1006D0004FF0000E013C00F3AB8014F1360FDEBF8B
:1006E000002001F0004170BDC4F10004203C35DA67
:1006F0000C341BDC04F11404C4F1200500FA05F3EA
:1007000020FA04F001FA05F240EA020001F000428A
:1007100021F0004110EBD37021FA04F642EB060100
:100720005EEA430E08BF20EAD37070BDC4F10C042A
:10073000C4F1200500FA04F320FA05F001FA04F2EE
:1007400040EA020001F0004110EBD37041F10001DA
:100750005EEA430E08BF20EAD37070BDC4F12005E5
:1007600000FA05F24EEA020E20FA04F301FA05F24D
:1007700043EA020321FA04F001F0004121FA04F2F5
:1007800020EA020000EBD3705EEA430E08BF20EAC5
:10079000D37070BD94F0000F0FD101F000464000FF
:1007A00041EB010111F4801F08BF013CF7D041EA81
:1007B000060195F0000F18BF704703F00046520085
:1007C00043EB030313F4801F08BF013DF7D043EA56
:1007D0000603704794EA0C0F0CEA135518BF95EA0C
:1007E0000C0F0CD050EA410618BF52EA4306D1D193
:1007F00081EA030101F000414FF0000070BD50EAB2
:10080000410606BF1046194652EA430619D094EA3B
:100810000C0F02D150EA013613D195EA0C0F05D125
:1008200052EA03361CBF104619460AD181EA030179
:1008300001F0004141F0FE4141F470014FF0000031
:1008400070BD41F0FE4141F4780170BD70B54FF0CC
:10085000FF0C4CF4E06C1CEA11541DBF1CEA13554C
:1008600094EA0C0F95EA0C0F00F0A7F8A4EB05042E
:1008700081EA030E52EA03354FEA013100F0888025
:100880004FEA03334FF0805545EA131343EA1263EE
:100890004FEA022245EA111545EA10654FEA0026A3
:1008A0000EF000419D4208BF964244F1FD0404F55C
:1008B000407402D25B084FEA3202B61A65EB0305B8
:1008C0005B084FEA32024FF480104FF4002CB6EB75
:1008D000020E75EB030E22BFB61A754640EA0C00F5
:1008E0005B084FEA3202B6EB020E75EB030E22BF35
:1008F000B61A754640EA5C005B084FEA3202B6EB76
:10090000020E75EB030E22BFB61A754640EA9C0034
:100910005B084FEA3202B6EB020E75EB030E22BF04
:10092000B61A754640EADC0055EA060E18D04FEAC2
:10093000051545EA16754FEA06164FEAC30343EA62
:1009400052734FEAC2025FEA1C1CC0D111F4801F2F
:100950000BD141EA00014FF000004FF0004CB6E728
:1009600011F4801F04BF01430020B4F1FD0C88BFC7
:10097000BCF5E06F3FF6AFAEB5EB030C04BFB6EBD2
:10098000020C5FEA500C50F1000041EB045170BDC5
:100990000EF0004E4EEA113114EB5C04C2BFD4EBF2
:1009A0000C0541EA045170BD41F480114FF0000E76
:1009B000013C90E645EA060E8DE60CEA135594EAF2
:1009C0000C0F08BF95EA0C0F3FF43BAF94EA0C0FF5
:1009D0000AD150EA01347FF434AF95EA0C0F7FF46A
:1009E00025AF104619462CE795EA0C0F06D152EABE
:1009F00003353FF4FDAE1046194622E750EA4106A2
:100A000018BF52EA43067FF4C5AE50EA41047FF4B2
:100A10000DAF52EA43057FF4EBAE12E74FF0FF3C17
:100A200006E000BF4FF0010C02E000BF4FF0010CE8
:100A30004DF804CD4FEA410C7FEA6C5C4FEA430C61
:100A400018BF7FEA6C5C1BD001B050EA410C0CBFB0
:100A500052EA430C91EA030F02BF90EA020F002012
:100A6000704710F1000F91EA030F58BF994208BF79
:100A700090422CBFD8176FEAE37040F00100704736
:100A80004FEA410C7FEA6C5C02D150EA013C07D18D
:100A90004FEA430C7FEA6C5CD6D152EA033CD3D0D8
:100AA0005DF8040B704700BF8446104662468C46D2
:100AB0001946634600E000BF01B5FFF7B7FF002805
:100AC00048BF10F1000F01BD4DF808EDFFF7F4FF2E
:100AD0000CBF012000205DF808FB00BF4DF808EDB9
:100AE000FFF7EAFF34BF012000205DF808FB00BFDC
:100AF0004DF808EDFFF7E0FF94BF012000205DF8FE
:100B000008FB00BF4DF808EDFFF7CEFF94BF0120B2
:100B100000205DF808FB00BF4DF808EDFFF7C4FFAB
:100B200034BF012000205DF808FB00BF53B94AB96B
:100B3000002908BF00281CBF4FF0FF314FF0FF30E5
:100B400000F072B9ADF1080C6DE904CE00F006F8C2
:100B5000DDF804E0DDE9022304B070472DE9F04739
:100B6000089E04468846002B4BD18A42154667D919
:100B7000B2FA82F24AB1C2F1200701FA02F320FA76
:100B800007F7954047EA030894404FEA154E230CB7
:100B9000B8FBFEF71FFA85FC0EFB178843EA0843F3
:100BA00007FB0CF1994209D9EB1807F1FF3080F0EF
:100BB0001B81994240F21881023F2B445B1AA4B278
:100BC000B3FBFEF00EFB103344EA034400FB0CFCC5
:100BD000A44509D92C1900F1FF3380F00781A44501
:100BE00040F2048102382C4440EA0740A4EB0C0494
:100BF00000271EB1D4400023C6E900433946BDE8B2
:100C0000F0878B4209D9002E00F0EB800027C6E95F
:100C1000000138463946BDE8F087B3FA83F7002F64
:100C200047D18B4202D3824200F2FA80841A61EBF0
:100C3000030301209846002EE0D0C6E90048DDE716
:100C400002B9FFDEB2FA82F2002A40F08F80491B1F
:100C50004FEA154E1FFA85F80127B1FBFEFC230C65
:100C60000EFB1C1143EA014308FB0CF1994207D922
:100C7000EB180CF1FF3002D2994200F2CD8084468D
:100C8000591AA3B2B1FBFEF00EFB101443EA044460
:100C900008FB00F8A04507D92C1900F1FF3302D258
:100CA000A04500F2B6801846A4EB080440EA0C40C8
:100CB0009FE7C7F1200CBB4022FA0CFE4EEA030E60
:100CC00001FA07F420FA0CF521FA0CF34FEA1E485A
:100CD0002543B3FBF8F92C0C08FB19331FFA8EFAE5
:100CE00044EA034309FB0AF49C4202FA07F200FAC1
:100CF00007F10BD91EEB030309F1FF3080F0878069
:100D00009C4240F28480A9F1020973441B1BADB2DE
:100D1000B3FBF8F008FB103345EA034400FB0AFA82
:100D2000A24508D91EEB040400F1FF336BD2A245A3
:100D300069D90238744440EA0940A0FB0289A4EB57
:100D40000A044C45C2464B4654D351D0002E69D0BC
:100D5000B1EB0A0564EB030404FA0CFCFD40FC4013
:100D60004CEA0505C6E90054002747E7C2F1200315
:100D700020FA03F7954001FA02F021FA03F34FEA53
:100D8000154E3843010CB3FBFEF71FFA85F80EFB36
:100D9000173341EA034107FB08F38B4204FA02F4DC
:100DA00007D9691807F1FF3C2FD28B422DD9023F9A
:100DB0002944CB1A81B2B3FBFEF00EFB103341EA9B
:100DC000034100FB08F38B4207D9691800F1FF3C8F
:100DD00017D28B4215D902382944C91A40EA07476D
:100DE0003BE73746304609E70746E7E61846FBE6A5
:100DF0004145ABD2B8EB020A69EB0E02013813464B
:100E0000A4E76046E9E7184695E76746D1E78146DB
:100E10007CE702382C4447E7ACF1020C2B442FE767
:100E2000384608E73746E9E6704700BF80B582B02C
:100E300000AF6F4B20221A7000237B60D0E07B68EC
:100E4000002B2FD101224FF400716A4801F08AFE75
:100E50004FF48051684801F06DFE0346012B03D129
:100E6000634B31221A7016E04FF40051624801F0D2
:100E700061FE0346012B03D15D4B32221A700AE05A
:100E80004FF480415C4801F055FE0346012B02D12E
:100E9000574B33221A7000224FF40071554801F06D
:100EA00061FE97E07B68012B2FD101224FF4806116
:100EB000504801F057FE4FF480514F4801F03AFE80
:100EC0000346012B03D14A4B34221A7016E04FF42B
:100ED0000051494801F02EFE0346012B03D1444B3B
:100EE00035221A700AE04FF48041434801F022FE97
:100EF0000346012B02D13E4B36221A7000224FF4DA
:100F000080613C4801F02EFE64E07B68022B2FD10B
:100F100001224FF40061374801F024FE4FF4805164
:100F2000354801F007FE0346012B03D1304B372231
:100F30001A7016E04FF400512F4801F0FBFD0346F4
:100F4000012B03D12A4B38221A700AE04FF480415A
:100F5000294801F0EFFD0346012B02D1244B392231
:100F60001A7000224FF40061224801F0FBFD31E0CD
:100F70007B68032B2ED101224FF480511D4801F0D4
:100F8000F1FD4FF480511C4801F0D4FD0346012BC4
:100F900003D1174B2A221A7016E04FF4005116485D
:100FA00001F0C8FD0346012B03D1114B30221A700A
:100FB0000AE04FF48041104801F0BCFD0346012BCC
:100FC00002D10B4B23221A7000224FF480510948A2
:100FD00001F0C8FD052001F0F7FA7B6801337B6062
:100FE0007B68032B7FF72BAF00BF0837BD4680BD62
:100FF0003C010020000802400004024080B582B09D
:1010000000AF3A601A460346FB710B46BB711346AC
:101010007B71FB79012B05D1BB79803BDAB2124B96
:101020001A7007E0FB79022B04D1BB79403BDAB29E
:101030000D4B1A704FF47A7301220C490C4802F0E0
:10104000FAFF4FF47A7301220749094802F0F3FFCF
:101050007B799AB24FF47A733968054802F0EBFF56
:1010600000BF0837BD4680BDD001002037000020FA
:101070008001002080B500AF4FF47A730122064949
:10108000064802F0D8FF4FF47A730122044903485E
:1010900002F0D1FF00BF80BD37000020800100209A
:1010A0003800002080B483B000AF2D4B1B881A4657
:1010B0002C4B1B781946322393FBF1F39A4215DA35
:1010C000284B1B781A46264B1B88013303FB02F280
:1010D00013469B0013445B00013B7B60224B1B6863
:1010E0007A685A63204B1B6800229A631C4B1B884A
:1010F000B3F5966F2DD21A4B1B881A461B4B1B78E3
:1011000019466FF0310393FBF1F303F596639A42AE
:101110001FDB164B1B781946144B1B781A463223DB
:1011200093FBF2F20E4B1B88C3F59663D31A01337F
:1011300003FB01F36FF0090202FB03F303F5FA73FB
:101140003B60094B1B683A685A63074B1B680022D7
:101150009A6300BF0C37BD465DF8047B704700BF43
:10116000D400002035000020FC00002036000020C4
:1011700080B483B000AF2D4B1B881A462C4B1B78D4
:101180001946322393FBF1F39A4215DA284B1B7868
:101190001A46264B1B88013303FB02F213469B00C1
:1011A00013445B00013B7B60224B1B687A689A63A7
:1011B000204B1B6800225A631C4B1B88B3F5966FAB
:1011C0002DD21A4B1B881A461B4B1B7819466FF001
:1011D000310393FBF1F303F596639A421FDB164B41
:1011E0001B781946144B1B781A46322393FBF2F2F4
:1011F0000E4B1B88C3F59663D31A013303FB01F32F
:101200006FF0090202FB03F303F5FA733B60094B2D
:101210001B683A689A63074B1B6800225A6300BF39
:101220000C37BD465DF8047B704700BFD40000203A
:1012300035000020FC0000203600002080B483B080
:1012400000AF2C4B1B881A462B4B1B7819461923D1
:1012500093FBF1F39A4215DA274B1B781A46254B7C
:101260001B88013303FB02F213469B0013445B000F
:10127000013B7B60214B1B687A689A631F4B1B689C
:1012800000225A631B4B1B88B3F5966F2CD2194B67
:101290001B881A461A4B1B7819466FF0180393FBEC
:1012A000F1F303F596639A421EDB154B1B78194642
:1012B000134B1B781A46192393FBF2F20D4B1B8834
:1012C000C3F59663D31A013303FB01F36FF00902F0
:1012D00002FB03F3FA333B60084B1B683A689A63DE
:1012E000064B1B6800225A6300BF0C37BD465DF8F1
:1012F000047B7047D400002035000020FC00002053
:101300003600002080B400AF074B1B6840F2E73284
:101310005A63054B1B6840F2E7329A6300BFBD4633
:101320005DF8047B704700BFFC0000200000000057
:10133000B0B582B000AF0023FB710123BB7101F097
:10134000D1F800F0B1FB00F081FD00F055FD00F098
:10135000D1FC00F009FC00F057FCB14802F0DBF8CA
:101360000021AF4802F030F90421AD4802F02CF919
:10137000AC4802F0D0F80421AA4802F025F9AA4BA3
:101380001B78012B4CD1FFF775FE142001F01CF9DE
:10139000A64B1B78002B0CD10923A54A0021012064
:1013A000FFF72CFE1223A34A00210220FFF726FE9E
:1013B00033E09E4B1B78012B18D10023FB710123D6
:1013C000BB7108239C4A00210120FFF717FE9B4BAD
:1013D0001B7801229A499B4803F0BEFA0346DBB210
:1013E000984A00210220FFF709FE16E08F4B1B7878
:1013F000022B12D10623944A00210120FFF7FEFDA3
:10140000924B1B781A4613469B0013445B00013B2A
:101410003B60834B1B683A685A63834B00221A7007
:1014200080218B4801F086FB0346002B20D14FF42E
:101430008071874801F07EFB0346002B18D14FF4E2
:101440000071834801F076FB0346002B10D1774BE7
:101450001B78002B03D0754B1B78022B08D14FF45F
:1014600000717C4801F097FB642001F0ADF805E0C5
:1014700000224FF40071774801F074FB4FF40071C3
:10148000734801F057FB0346012B15D1674B1B78BE
:10149000002B03D0654B1B78022B0DD16E4B012224
:1014A0001A70FFF72FFF4FF480616A4801F073FB59
:1014B000642001F089F82AE000224FF48061654839
:1014C00001F050FB644B1B78012B20D14FF40071CD
:1014D0005F4801F02FFB0346002B18D1534B1B78BC
:1014E000002B03D0514B1B78022B10D15B4B1B7888
:1014F000012B06D15A4B1B88C3F596639AB2584B01
:101500001A80584B01221A70544B00221A70564B05
:101510001B78012B5DD1454B1B78022B59D1534BC6
:101520001B881A46920013445B009AB2504B1A80F3
:101530004F4B1B8849F27042934206D100224FF470
:101540000061444801F00EFB40E0494B1B88494ACA
:10155000A2FB03235B099AB2454B1A80444B1B88BC
:101560001846FEF7DFFF04460D46344B1B7818463D
:10157000FEF7D8FF28A3D3E90023FFF73DF8024682
:101580000B4620462946FFF7B3FA0346002B17D037
:1015900001224FF400612F4801F0E4FA314B1B782F
:1015A000012B06D12E4B1B88C3F596639AB22C4BA8
:1015B0001A802A4B01221A702A4B00221A7005E069
:1015C00000224FF40061234801F0CCFA264B0022A0
:1015D0001A70294B1B78012B40F09880134B1B7815
:1015E000022B40F09380254B1B881A46920013442F
:1015F0005B009AB2224B1A80214B1B8849F2704241
:1016000093423FD100224FF48051124801F0AAFAD0
:1016100079E000BFAFF300807B14AE47E17A3E4033
:10162000FC000020D4010020C800002000000020A1
:1016300004000020100000202400002032000020C0
:101640007C510008C00100202C0000203500002043
:101650000004024000000240D8000020D600002014
:10166000D4000020D7000020C9000020D0000020B6
:10167000CC00002009CB3D8DCA000020D200002004
:10168000CE000020A04B1B88A04AA2FB03235B09CD
:101690009AB29D4B1A809C4B1B881846FEF742FF5E
:1016A00004460D469A4B1B781846FEF73BFF94A361
:1016B000D3E90023FEF7A0FF02460B462046294649
:1016C000FFF716FA0346002B17D001224FF4805182
:1016D000904801F047FA904B1B78012B06D18F4BB5
:1016E0001B88C3F596639AB28C4B1A808C4B0122EF
:1016F0001A70894B00221A7005E000224FF48051C5
:10170000844801F02FFA874B00221A70864B1B7811
:10171000002B4AD1FFF78AFB844B1B78302B03D177
:10172000834B00221A7006E0804B1B78312B02D1CC
:101730007F4B01221A707E4B1B78002B02D1FFF7E2
:10174000B1FC18E07A4B1B78012B14D1794B1B7834
:10175000012B0AD14FF40071774801F0EBF90346F1
:10176000002B02D1FFF76AFD05E0724B1B78002BBE
:1017700001D1FFF7FDFC80216F4801F0DBF9034642
:10178000012B07D04FF480716B4801F0D3F9034669
:10179000012B0AD1664B02221A70FFF7B3FD654B8D
:1017A00000221A705D4B00221A805F4B1B78012BC0
:1017B00040F00981614B1B6840F2E7325A635F4B8E
:1017C0001B6840F2E7329A63FB79002B40F0FB8004
:1017D000FFF72CFB554B1B78232B0BD1BA79584BB9
:1017E000A3FB021399080B469B000B44D31ADBB2F0
:1017F0000133BB714D4B1B782A2B04D10123FB71A4
:10180000FFF738FCDFE0BB79012B17D1474B1B7882
:10181000302B0BD9454B1B78342B07D8434B1B7807
:101820005033DBB25B00DAB2464B1A70BA79454BE3
:101830001B784549454803F08FF8BAE0BB79022B85
:1018400017D13A4B1B78302B0BD9384B1B78342BE4
:1018500007D8364B1B785033DBB25B00DAB22C4B27
:101860001A70BA792A4B1B783749384803F074F854
:101870009FE0BB79032B19D12C4B1B78302B0DD952
:101880002A4B1B78342B09D8284B1B781A46920018
:101890001344DBB21033DAB22D4B1A70BA792C4BE9
:1018A0001B782C49294803F057F882E0BB79042BB8
:1018B00056D11E4B1B78302B1AD91C4B1B78332B5F
:1018C00016D81A4B1B78312B03D1234B01221A70E7
:1018D0000EE0164B1B78322B03D11F4B02221A70DD
:1018E00006E0124B1B78332B02D11B4B05221A70DA
:1018F000BA79194B1B781949144803F02DF858E0B0
:101900007B14AE47E17A3E40CE00002009CB3D8DEE
:101910003300002000000240D7000020D400002047
:10192000D6000020CA000020000000203C0100205A
:1019300039000020D800002000040240FC000020F4
:10194000CDCCCCCC320000207C510008C00100205E
:10195000340000208C510008350000209851000808
:10196000BB79052B25D1444B1B78302B1AD9424B20
:101970001B78332B16D8404B1B78312B03D13F4BB0
:1019800001221A700EE03C4B1B78322B03D13B4BEB
:1019900002221A7006E0384B1B78332B02D1374BEA
:1019A00005221A70BA79364B1B783649364802F050
:1019B000D3FF314B1B78202B05D01023324A002156
:1019C0000220FFF71BFB314B1B78022B7FF4D7ACB7
:1019D0002F4B1B78012B20D14FF480712D4801F043
:1019E000A9F80346012B15D1FFF78CFC284B0022E8
:1019F0001A70294B1B781A464FF47A7303FB02F3D3
:101A0000184600F0E1FD254B01221A70244B0022FC
:101A10001A80B4E4FFF746FBB1E4204B1B78012B9E
:101A20007FF4ADAC80211B4801F084F80346012B04
:101A30000BD1FFF767FC194B00221A70194B0022DB
:101A40001A70174B00221A8099E4164B1B78012B51
:101A50000AD14FF400710F4801F06CF80346002BD7
:101A600002D1FFF7EBFB06E00E4B1B78002B7FF457
:101A700086ACFFF77DFB82E43C01002035000020AE
:101A80003600002098510008C0010020000000200E
:101A9000D60000200004024034000020D7000020BF
:101AA000D4000020D800002080B594B000AF07F12A
:101AB000200330220021184602F046FF07F10C03F4
:101AC00000221A605A609A60DA601A610023BB60D3
:101AD000234B1B6C224A43F080531364204B1B6C36
:101AE00003F08053BB60BB6800237B601D4B1B6809
:101AF00023F440431B4A43F400431360194B1B6813
:101B000003F440437B607B6802233B620123FB625A
:101B100010233B630023BB6307F12003184601F049
:101B20006DF80346002B01D000F0F6FA0F23FB609E
:101B300000233B6100237B614FF48053BB61002392
:101B4000FB6107F10C030021184601F0C7FA0346B8
:101B5000002B01D000F0E0FA00BF5037BD4680BD39
:101B6000003802400070004080B586B000AF07F139
:101B7000080300221A605A609A60DA603B4600222D
:101B80001A605A601E4B1F4A1A601D4B00225A6091
:101B90001B4B00229A601A4B4FF6FF72DA60184B0B
:101BA00000221A61164B00225A61154B00229A61DD
:101BB000134801F085FC0346002B01D000F0ACFA7D
:101BC0004FF48053BB6007F1080319460C4801F03D
:101BD000F3FD0346002B01D000F09EFA00233B608A
:101BE00000237B603B461946054802F069F903462D
:101BF000002B01D000F090FA00BF1837BD4680BD21
:101C0000400100200000014080B58EB000AF07F118
:101C1000280300221A605A609A60DA6007F12003F4
:101C200000221A605A603B1D00221A605A609A60B6
:101C3000DA601A615A619A612D4B4FF080421A6046
:101C40002B4B9F225A602A4B00229A60284B41F26C
:101C50008832DA60264B00221A61254B00229A61F5
:101C6000234801F02DFC0346002B01D000F054FA6C
:101C70004FF48053BB6207F1280319461C4801F05A
:101C80009BFD0346002B01D000F046FA184801F0F6
:101C900066FC0346002B01D000F03EFA00233B62B5
:101CA00000237B6207F120031946114802F008F96E
:101CB0000346002B01D000F02FFA60237B60012344
:101CC000BB600023FB6000237B613B1D042219469F
:101CD000074801F0ABFC0346002B01D000F01CFAD2
:101CE000034800F091FA00BF3837BD4680BD00BF01
:101CF000D401002080B58EB000AF07F12803002288
:101D00001A605A609A60DA6007F1200300221A60B4
:101D10005A603B1D00221A605A609A60DA601A61AC
:101D20005A619A61324B334A1A60314B40F23F623A
:101D30005A602F4B00229A602D4B40F2E732DA6056
:101D40002B4B00221A612A4B00229A61284801F08D
:101D5000B7FB0346002B01D000F0DEF94FF48053AF
:101D6000BB6207F128031946214801F025FD03460F
:101D7000002B01D000F0D0F91D4801F0F0FB034624
:101D8000002B01D000F0C8F900233B6200237B62E6
:101D900007F120031946164802F092F80346002B7B
:101DA00001D000F0B9F960237B600023BB60002301
:101DB000FB6000237B613B1D002219460C4801F0AB
:101DC00035FC0346002B01D000F0A6F93B1D042290
:101DD0001946074801F02AFC0346002B01D000F009
:101DE0009BF9034800F010FA00BF3837BD4680BDAC
:101DF000FC0000200004004080B500AF114B124AE7
:101E00001A60104B4FF416525A600E4B00229A6023
:101E10000C4B0022DA600B4B00221A61094B0C229A
:101E20005A61084B00229A61064B0022DA6105488C
:101E300002F0B4F80346002B01D000F06DF900BFAA
:101E400080BD00BF800100200014014080B58AB031
:101E500000AF07F1140300221A605A609A60DA603A
:101E60001A6100233B615F4B1B6B5E4A43F0040326
:101E700013635C4B1B6B03F004033B613B69002362
:101E8000FB60584B1B6B574A43F080031363554B61
:101E90001B6B03F08003FB60FB680023BB60514BAE
:101EA0001B6B504A43F0010313634E4B1B6B03F053
:101EB0000103BB60BB6800237B604A4B1B6B494A34
:101EC00043F002031363474B1B6B03F002037B6079
:101ED0007B6800224FF4F151434800F043FE00229A
:101EE0004FF4F051414800F03DFE05237B61002393
:101EF000BB610023FB6107F1140319463B4800F066
:101F000097FC4FF4F1537B610123BB610023FB611C
:101F100000233B6207F114031946334800F088FCA4
:101F200006237B61324BBB610023FB6107F1140385
:101F30001946304800F07CFC4FF48E637B612E4BD9
:101F4000BB610023FB6107F114031946294800F027
:101F50006FFC4FF4E7437B610023BB610023FB610F
:101F600007F114031946234800F062FC4FF4F053C4
:101F70007B610123BB610023FB6100233B6207F10E
:101F800014031946194800F053FC002200210720D1
:101F900000F017FC072000F030FC00220021082090
:101FA00000F00FFC082000F028FC002200210A208D
:101FB00000F007FC0A2000F020FC0022002117207E
:101FC00000F0FFFB172000F018FC00220021282061
:101FD00000F0F7FB282000F010FC00BF2837BD46BA
:101FE00080BD00BF003802400000024000080240EF
:101FF00000003110000402400000111080B582B0D2
:1020000000AF0346FB80FB88022B21D10221374819
:1020100000F090FD0346012B06D1354B1B685B6A2F
:102020009AB2344B1A8013E00221304800F082FD4E
:102030000346002B0CD12E4B1B685B6A9AB22D4BCA
:102040001B88D31A9AB22C4B1A802C4B01221A707F
:10205000FB88042B21D10421244800F06BFD0346AA
:10206000012B06D1224B1B685B6A9AB2244B1A8063
:1020700013E004211D4800F05DFD0346002B0CD148
:102080001B4B1B685B6A9AB21D4B1B88D31A9AB212
:102090001C4B1A801C4B01221A70FB88B3F5806F11
:1020A00005D11A4B1B8801339AB2184B1A80FB8852
:1020B000102B05D1164B01221A70164B00221A70F4
:1020C000FB88202B05D1124B01221A70114B0122E3
:1020D0001A70FB88402B05D10D4B01221A700D4B55
:1020E00002221A7000BF0837BD4680BD00040240BE
:1020F000D401002014020020D0000020C9000020DC
:10210000E8000020D2000020CA000020D4000020F7
:10211000C80000200000002080B400AF72B6FEE7C7
:1021200080B582B000AF00237B60104B5B6C0F4A20
:1021300043F4804353640D4B5B6C03F480437B603A
:102140007B6800233B60094B1B6C084A43F08053BB
:102150001364064B1B6C03F080533B603B68072005
:1021600000F024FB00BF0837BD4680BD00380240A8
:1021700080B487B000AF78607B681B681F4A9342C9
:102180000ED100237B611E4B5B6C1D4A43F00103A3
:1021900053641B4B5B6C03F001037B617B6926E09E
:1021A0007B681B68B3F1804F0ED100233B61144B59
:1021B0001B6C134A43F001031364114B1B6C03F0B7
:1021C00001033B613B6912E07B681B680D4A934247
:1021D0000DD10023FB600A4B1B6C094A43F002033C
:1021E0001364074B1B6C03F00203FB60FB6800BF2A
:1021F0001C37BD465DF8047B704700BF00000140FE
:10220000003802400004004080B58AB000AF78601A
:1022100007F1140300221A605A609A60DA601A61AA
:102220007B681B68B3F1804F1ED100233B61224BBA
:102230001B6B214A43F0010313631F4B1B6B03F01D
:1022400001033B613B6902237B610223BB610023E5
:10225000FB6100233B6201237B6207F114031946F3
:10226000164800F0E5FA22E07B681B68144A9342A6
:102270001DD10023FB60104B1B6B0F4A43F0010381
:1022800013630D4B1B6B03F00103FB60FB68C02362
:102290007B610223BB610023FB6100233B620223BD
:1022A0007B6207F114031946044800F0C1FA00BF2D
:1022B0002837BD4680BD00BF003802400000024004
:1022C0000004004080B58AB000AF786007F11403C5
:1022D00000221A605A609A60DA601A617B681B6893
:1022E000194A93422BD100233B61184B5B6C174A70
:1022F00043F020035364154B5B6C03F020033B61F8
:102300003B690023FB60114B1B6B104A43F0040335
:1023100013630E4B1B6B03F00403FB60FB68C023CD
:102320007B610223BB610023FB6103233B62082323
:102330007B6207F114031946054800F079FA00BFE3
:102340002837BD4680BD00BF001401400038024060
:102350000008024080B400AFFEE780B400AFFEE7A3
:1023600080B400AFFEE780B400AFFEE780B400AFFA
:10237000FEE780B400AF00BFBD465DF8047B704748
:1023800080B400AF00BFBD465DF8047B704780B4E9
:1023900000AF00BFBD465DF8047B704780B500AF5D
:1023A00000F0F2F800BF80BD80B500AF022000F061
:1023B0000DFC00BF80BD80B500AF042000F006FC1E
:1023C00000BF80BD80B500AF102000F0FFFB00BF54
:1023D00080BD80B500AF202000F0F8FB402000F069
:1023E000F5FB00BF80BD80B500AF4FF4806000F00A
:1023F000EDFB00BF80BD000080B586B000AF786007
:10240000144A154BD31A7B617B693B61134B1B68E4
:10241000002B02D1114B124A1A60104B1A687B68CC
:1024200013443A699A4207D202F064FA02460C2336
:1024300013604FF0FF3309E0084B1B68FB60074B4C
:102440001A687B681344054A1360FB6818461837FE
:10245000BD4680BD0080012000040000DC0000209B
:102460003002002080B400AF084BD3F88830074A10
:1024700043F47003C2F88830044B4FF000629A6056
:1024800000BFBD465DF8047B704700BF00ED00E073
:10249000DFF834D0002103E00C4B5B58435004318B
:1024A0000B480C4B42189A42F6D30B4A02E0002329
:1024B00042F8043B094B9A42F9D3FFF7D3FF02F0ED
:1024C0001FFAFEF735FF7047008001200052000818
:1024D00000000020AC000020AC00002030020020F2
:1024E000FEE7000080B500AF0E4B1B680D4A43F4B9
:1024F000007313600B4B1B680A4A43F4806313603C
:10250000084B1B68074A43F480731360032000F0F4
:102510004DF9002000F008F8FFF702FE00231846EE
:1025200080BD00BF003C024080B582B000AF786043
:10253000124B1A68124B1B7819464FF47A73B3FB8F
:10254000F1F3B2FBF3F3184600F065F90346002BF4
:1025500001D001230EE07B680F2B0AD80022796896
:102560004FF0FF3000F02DF9064A7B68136000231E
:1025700000E0012318460837BD4680BD3C0000201E
:10258000440000204000002080B400AF064B1B78C0
:102590001A46064B1B681344044A136000BFBD462D
:1025A0005DF8047B704700BF440000202802002033
:1025B00080B400AF034B1B681846BD465DF8047B32
:1025C000704700BF2802002080B584B000AF78605B
:1025D000FFF7EEFFB8607B68FB60FB68B3F1FF3F7D
:1025E00005D0094B1B781A46FB681344FB6000BFFB
:1025F000FFF7DEFF0246BB68D31AFA689A42F7D8A3
:1026000000BF1037BD4680BD4400002080B485B0B7
:1026100000AF78607B6803F00703FB600C4BDB685E
:10262000BB60BA684FF6FF031340BB60FB681A0239
:10263000BB68134343F0BF6343F40033BB60044AF9
:10264000BB68D36000BF1437BD465DF8047B70479C
:1026500000ED00E080B400AF044BDB681B0A03F020
:1026600007031846BD465DF8047B704700ED00E0A7
:1026700080B483B000AF0346FB7197F90730002B9D
:102680000BDBFB7903F01F02074997F907305B0961
:10269000012000FA02F241F8232000BF0C37BD46AA
:1026A0005DF8047B704700BF00E100E080B483B0B8
:1026B00000AF03463960FB7197F90730002B0ADB46
:1026C0003B68DAB20C4997F907301201D2B20B44D9
:1026D00083F800230AE03B68DAB20849FB7903F08B
:1026E0000F03043B1201D2B20B441A7600BF0C3721
:1026F000BD465DF8047B704700E100E000ED00E0BE
:1027000080B489B000AFF860B9607A60FB6803F00C
:102710000703FB61FB69C3F10703042B28BF0423F4
:10272000BB61FB690433062B02D9FB69033B00E064
:1027300000237B614FF0FF32BB6902FA03F3DA43F7
:10274000BB681A407B699A404FF0FF317B6901FA00
:1027500003F3D9437B680B40134318462437BD4627
:102760005DF8047B7047000080B582B000AF7860F0
:102770007B68013BB3F1807F01D301230FE00A4A5C
:102780007B68013B53600F214FF0FF30FFF78EFF56
:10279000054B00229A60044B07221A60002318465A
:1027A0000837BD4680BD00BF10E000E080B582B0B4
:1027B00000AF78607868FFF729FF00BF0837BD4693
:1027C00080BD80B586B000AF0346B9607A60FB7308
:1027D00000237B61FFF73EFF78617A68B96878690A
:1027E000FFF78EFF024697F90F3011461846FFF7A4
:1027F0005DFF00BF1837BD4680BD80B582B000AF19
:102800000346FB7197F907301846FFF731FF00BF09
:102810000837BD4680BD80B582B000AF786078686B
:10282000FFF7A2FF034618460837BD4680BD0000EB
:1028300080B489B000AF7860396000237B610023E9
:102840003B610023BB610023FB6159E10122FB696D
:1028500002FA03F37B613B681B687A6913403B61B2
:102860003A697B699A4240F048813B685B68012B7A
:102870000BD03B685B68022B07D03B685B68112B71
:1028800003D03B685B68122B30D17B689B68BB61CF
:10289000FB695B00032202FA03F3DB43BA691340CE
:1028A000BB613B68DA68FB695B0002FA03F3BA6953
:1028B0001343BB617B68BA699A607B685B68BB61E4
:1028C0000122FB6902FA03F3DB43BA691340BB61DF
:1028D0003B685B681B0903F00102FB6902FA03F322
:1028E000BA691343BB617B68BA695A607B68DB686D
:1028F000BB61FB695B00032202FA03F3DB43BA69A5
:102900001340BB613B689A68FB695B0002FA03F302
:10291000BA691343BB617B68BA69DA603B685B687C
:10292000022B03D03B685B68122B23D1FB69DA08CA
:102930007B68083253F82230BB61FB6903F0070360
:102940009B000F2202FA03F3DB43BA691340BB6119
:102950003B681A69FB6903F007039B0002FA03F363
:10296000BA691343BB61FB69DA087B680832B9694D
:1029700043F822107B681B68BB61FB695B00032284
:1029800002FA03F3DB43BA691340BB613B685B683F
:1029900003F00302FB695B0002FA03F3BA69134315
:1029A000BB617B68BA691A603B685B6803F080535F
:1029B000002B00F0A2800023FB60564B5B6C554A55
:1029C00043F480435364534B5B6C03F48043FB60DC
:1029D000FB68514AFB699B08023352F82330BB6104
:1029E000FB6903F003039B000F2202FA03F3DB43AE
:1029F000BA691340BB617B68484A934219D07B682F
:102A0000474A934213D07B68464A93420DD07B6875
:102A1000454A934207D07B68444A934201D104233C
:102A200008E0072306E0032304E0022302E0012379
:102A300000E00023FA6902F0030292009340BA69B1
:102A40001343BB613449FB699B080233BA6941F8FF
:102A50002320374B1B68BB613B69DB43BA691340DA
:102A6000BB613B685B6803F48033002B03D0BA6919
:102A70003B691343BB612E4ABB6913602C4B5B68F7
:102A8000BB613B69DB43BA691340BB613B685B6870
:102A900003F40033002B03D0BA693B691343BB61D5
:102AA000234ABB695360224B9B68BB613B69DB4394
:102AB000BA691340BB613B685B6803F48013002B69
:102AC00003D0BA693B691343BB61194ABB69936080
:102AD000174BDB68BB613B69DB43BA691340BB61E1
:102AE0003B685B6803F40013002B03D0BA693B69B1
:102AF0001343BB610E4ABB69D360FB690133FB61C1
:102B0000FB690F2B7FF6A2AE00BF2437BD465DF8F0
:102B1000047B70470038024000380140000002404A
:102B20000004024000080240000C02400010024075
:102B3000003C014080B485B000AF78600B467B80DC
:102B40007B681A697B881340002B02D00123FB733A
:102B500001E00023FB73FB7B18461437BD465DF88C
:102B6000047B704780B483B000AF78600B467B80F5
:102B700013467B707B78002B03D07A887B689A6140
:102B800003E07B881A047B689A6100BF0C37BD465E
:102B90005DF8047B704780B483B000AF78600B466B
:102BA0007B807B685A697B881A407B889A4204D173
:102BB0007B881A047B689A6102E07A887B689A6154
:102BC00000BF0C37BD465DF8047B704780B582B00E
:102BD00000AF0346FB80084B5A69FB881340002B6B
:102BE00006D0054AFB885361FB881846FFF706FAB2
:102BF00000BF0837BD4680BD003C014080B586B0AF
:102C000000AF78607B68002B01D101235BE27B6819
:102C10001B6803F00103002B75D0A34B9B6803F0E6
:102C20000C03042B0CD0A04B9B6803F00C03082B67
:102C300012D19D4B5B6803F48003B3F5800F0BD179
:102C4000994B1B6803F40033002B5BD07B685B68F7
:102C5000002B57D1012336E27B685B68B3F5803FD8
:102C600006D1914B1B68904A43F4803313601DE0FA
:102C70007B685B68B3F5A02F0CD18B4B1B688A4A2D
:102C800043F480231360884B1B68874A43F48033E6
:102C900013600BE0844B1B68834A23F4803313607A
:102CA000814B1B68804A23F4802313607B685B6838
:102CB000002B13D0FFF77CFC386108E0FFF778FCAD
:102CC00002463B69D31A642B01D90323FBE1764BFF
:102CD0001B6803F40033002BF0D014E0FFF768FC0E
:102CE000386108E0FFF764FC02463B69D31A642BA5
:102CF00001D90323E7E16C4B1B6803F40033002B7D
:102D0000F0D100E000BF7B681B6803F00203002BDA
:102D100063D0654B9B6803F00C03002B0BD0624B18
:102D20009B6803F00C03082B1CD15F4B5B6803F41A
:102D30008003002B16D15C4B1B6803F00203002BB1
:102D400005D07B68DB68012B01D00123BBE1564B2A
:102D50001B6823F0F8027B681B69DB0052491343B0
:102D60000B603AE07B68DB68002B20D04F4B0122E0
:102D70001A60FFF71DFC386108E0FFF719FC0246F6
:102D80003B69D31A022B01D903239CE1464B1B68F4
:102D900003F00203002BF0D0434B1B6823F0F80232
:102DA0007B681B69DB00404913430B6015E03F4B18
:102DB00000221A60FFF7FCFB386108E0FFF7F8FB20
:102DC00002463B69D31A022B01D903237BE1364B20
:102DD0001B6803F00203002BF0D17B681B6803F033
:102DE0000803002B30D07B685B69002B16D0304B7A
:102DF00001221A60FFF7DCFB386108E0FFF7D8FB1F
:102E000002463B69D31A022B01D903235BE1264B0F
:102E10005B6F03F00203002BF0D015E0244B00227F
:102E20001A60FFF7C5FB386108E0FFF7C1FB0246F7
:102E30003B69D31A022B01D9032344E11A4B5B6F80
:102E400003F00203002BF0D17B681B6803F004033E
:102E5000002B00F0A0800023FB75134B1B6C03F0CC
:102E60008053002B0FD10023BB600F4B1B6C0E4A0D
:102E700043F0805313640C4B1B6C03F08053BB6016
:102E8000BB680123FB750B4B1B6803F48073002B9D
:102E900021D1084B1B68074A43F480731360FFF786
:102EA00087FB386111E000BF003802400000474254
:102EB000800E474200700040FFF77AFB02463B69F4
:102EC000D31A022B01D90323FDE0814B1B6803F4C5
:102ED0008073002BF0D07B689B68012B06D17D4B63
:102EE0001B6F7C4A43F0010313671CE07B689B68FF
:102EF000052B0CD1774B1B6F764A43F00403136705
:102F0000744B1B6F734A43F0010313670BE0714B63
:102F10001B6F704A23F0010313676E4B1B6F6D4AE2
:102F200023F0040313677B689B68002B15D0FFF721
:102F30003FFB38610AE0FFF73BFB02463B69D31ACF
:102F400041F28832934201D90323BCE0614B1B6FED
:102F500003F00203002BEED014E0FFF729FB3861E9
:102F60000AE0FFF725FB02463B69D31A41F288329B
:102F7000934201D90323A6E0564B1B6F03F00203D3
:102F8000002BEED1FB7D012B05D1524B1B6C514A1E
:102F900023F0805313647B689B69002B00F09280C0
:102FA0004C4B9B6803F00C03082B5CD07B689B693F
:102FB000022B41D1484B00221A60FFF7F9FA386121
:102FC00008E0FFF7F5FA02463B69D31A022B01D954
:102FD000032378E03F4B1B6803F00073002BF0D114
:102FE0007B68DA697B681B6A1A437B685B6A9B01B2
:102FF0001A437B689B6A5B08013B1B041A437B688E
:10300000DB6A1B06334913434B60334B01221A60C2
:10301000FFF7CEFA386108E0FFF7CAFA02463B69CB
:10302000D31A022B01D903234DE02A4B1B6803F06E
:103030000073002BF0D045E0274B00221A60FFF709
:10304000B7FA386108E0FFF7B3FA02463B69D31AD2
:10305000022B01D9032336E01E4B1B6803F00073DB
:10306000002BF0D12EE07B689B69012B01D101235D
:1030700029E0184B5B68FB60FB6803F480027B6807
:10308000DB699A421CD1FB6803F03F027B681B6A34
:103090009A4215D1FA6847F6C07313407A68526AAB
:1030A00093420DD1FB6803F440327B689B6A9A42DD
:1030B00006D1FB6803F070627B68DB6A9A4201D03C
:1030C000012300E0002318461837BD4680BD00BF2D
:1030D00000700040003802406000474280B584B074
:1030E00000AF786039607B68002B01D10123CCE010
:1030F000684B1B6803F00F033A689A420CD9654B82
:103100003A68D2B21A70634B1B6803F00F033A6837
:103110009A4201D00123B8E07B681B6803F00203E8
:10312000002B20D07B681B6803F00403002B05D024
:10313000594B9B68584A43F4E05393607B681B6883
:1031400003F00803002B05D0534B9B68524A43F40D
:1031500060439360504B9B6823F0F0027B689B6850
:103160004D4913438B607B681B6803F00103002B00
:1031700044D07B685B68012B07D1474B1B6803F485
:103180000033002B19D101237FE07B685B68022BA1
:1031900003D07B685B68032B07D13F4B1B6803F0B0
:1031A0000073002B09D101236FE03B4B1B6803F038
:1031B0000203002B01D1012367E0374B9B6823F00A
:1031C00003027B685B68344913438B60FFF7F0F9B7
:1031D000F8600AE0FFF7ECF90246FB68D31A41F207
:1031E0008832934201D903234FE02B4B9B6803F0B5
:1031F0000C027B685B689B009A42EBD1254B1B68F5
:1032000003F00F033A689A420CD2224B3A68D2B2CA
:103210001A70204B1B6803F00F033A689A4201D0E2
:10322000012332E07B681B6803F00403002B08D005
:10323000194B9B6823F4E0527B68DB681649134303
:103240008B607B681B6803F00803002B09D0124BCE
:103250009B6823F460427B681B69DB000E491343C3
:103260008B6000F021F801460B4B9B681B0903F0B3
:103270000F030A4AD35C21FA03F3094A1360094B8E
:103280001B681846FFF750F9002318461037BD4653
:1032900080BD00BF003C024000380240A45100083D
:1032A0003C00002040000020F0B585B000AF0023B6
:1032B0007B600023FB6000233B600023BB60634B0B
:1032C0009B6803F00C03042B07D0082B08D0002BBD
:1032D00040F0B4805E4BBB60B3E05E4BBB60B0E0DF
:1032E0005A4B5B6803F03F037B60584B5B6803F409
:1032F0008003002B4AD0554B5B689B094FF00004BC
:1033000040F2FF114FF0000203EA010504EA020651
:10331000294632464FF000034FF00004540144EABE
:10332000D1644B0119462246491B62EB06024FF05D
:1033300000034FF00004940144EA91648B015B1A8E
:1033400064EB02044FF000014FF00002E20042EA99
:103350005372D9000B4614465B1944EB06044FF038
:1033600000014FF00002620242EAD35259020B46BA
:103370001446184621467B684FF000041A4623463F
:10338000FDF7D4FB03460C46FB6049E02F4B5B681E
:103390009B094FF0000440F2FF114FF0000203EAD6
:1033A000010504EA0206294632464FF000034FF0B9
:1033B0000004540144EAD1644B0119462246491BDA
:1033C00062EB06024FF000034FF00004940144EA60
:1033D00091648B015B1A64EB02044FF000014FF023
:1033E0000002E20042EA5372D9000B4614465B1910
:1033F00044EB06044FF000014FF00002A20242EA43
:10340000935299020B461446184621467B684FF0AA
:1034100000041A462346FDF789FB03460C46FB6071
:103420000A4B5B681B0C03F0030301335B003B603A
:10343000FA683B68B2FBF3F3BB6002E0044BBB608D
:1034400000BFBB6818461437BD46F0BD00380240C7
:103450000024F40000127A0080B400AF034B1B6814
:103460001846BD465DF8047B704700BF3C00002055
:1034700080B500AFFFF7F0FF0146054B9B689B0A44
:1034800003F00703034AD35C21FA03F3184680BD17
:1034900000380240B451000880B500AFFFF7DCFFF0
:1034A0000146054B9B685B0B03F00703034AD35CA3
:1034B00021FA03F3184680BD00380240B4510008D9
:1034C00080B582B000AF78607B68002B01D101230A
:1034D0001DE07B6893F83D30DBB2002B06D17B68A2
:1034E000002283F83C207868FEF742FE7B680222C7
:1034F00083F83D207B681A687B68043319461046C0
:1035000000F012FA7B68012283F83D200023184660
:103510000837BD4680BD80B485B000AF78607B6859
:10352000022283F83D207B681B689B6803F0070339
:10353000FB60FB68062B07D07B681B681A687B68FA
:103540001B6842F001021A607B68012283F83D206B
:10355000002318461437BD465DF8047B704780B5DC
:1035600082B000AF78607B68002B01D101231DE0A1
:103570007B6893F83D30DBB2002B06D17B680022DC
:1035800083F83C20786800F015F87B68022283F805
:103590003D207B681A687B6804331946104600F0AA
:1035A000C3F97B68012283F83D20002318460837C1
:1035B000BD4680BD80B483B000AF786000BF0C37DB
:1035C000BD465DF8047B704780B584B000AF78607D
:1035D00039607B681B6801223968184600F04AFC94
:1035E0007B681B68104A934207D17B681B685A6C42
:1035F0007B681B6842F400425A647B681B689B68C6
:1036000003F00703FB60FB68062B07D07B681B6891
:103610001A687B681B6842F001021A600023184692
:103620001037BD4680BD00BF0000014080B584B0AA
:1036300000AFF860B9607A60FB6893F83C30012B0A
:1036400001D10223B4E0FB68012283F83C20FB682F
:10365000022283F83D207B680C2B00F29F8001A2A0
:1036600052F823F0993600089D3700089D3700086E
:103670009D370008D93600089D3700089D3700089F
:103680009D3700081B3700089D3700089D3700084C
:103690009D3700085B370008FB681B68B96818464F
:1036A00000F0C2F9FB681B689A69FB681B6842F06E
:1036B00008029A61FB681B689A69FB681B6822F024
:1036C00004029A61FB681B689969BB681A69FB6808
:1036D0001B680A439A6162E0FB681B68B968184678
:1036E00000F008FAFB681B689A69FB681B6842F4E3
:1036F00000629A61FB681B689A69FB681B6822F488
:1037000080629A61FB681B689969BB681B691A0231
:10371000FB681B680A439A6141E0FB681B68B96853
:10372000184600F053FAFB681B68DA69FB681B68EF
:1037300042F00802DA61FB681B68DA69FB681B6803
:1037400022F00402DA61FB681B68D969BB681A6958
:10375000FB681B680A43DA6121E0FB681B68B968F3
:10376000184600F09DFAFB681B68DA69FB681B6865
:1037700042F40062DA61FB681B68DA69FB681B6867
:1037800022F48062DA61FB681B68D969BB681B6937
:103790001A02FB681B680A43DA6100E000BFFB689D
:1037A000012283F83D20FB68002283F83C2000239F
:1037B00018461037BD4680BD80B584B000AF786034
:1037C00039607B6893F83C30012B01D10223A6E0DD
:1037D0007B68012283F83C207B68022283F83D202D
:1037E0007B681B689B68FB60FB6823F07703FB60CA
:1037F000FB6823F47F43FB607B681B68FA689A6070
:103800003B681B68402B67D0402B0BD8102B73D024
:10381000102B02D8002B6FD078E0202B6CD0302BEF
:103820006AD073E0702B0DD0702B04D8502B33D09E
:10383000602B41D06AE0B3F5805F66D0B3F5005FDE
:1038400017D063E07B6818683B6899683B685A68E2
:103850003B68DB6800F0EEFA7B681B689B68FB60E6
:10386000FB6843F07703FB607B681B68FA689A602B
:103870004CE07B6818683B6899683B685A683B680D
:10388000DB6800F0D7FA7B681B689A687B681B6866
:1038900042F480429A6039E07B6818683B68596856
:1038A0003B68DB681A4600F04BFA7B681B685021C6
:1038B000184600F0A4FA29E07B6818683B6859684C
:1038C0003B68DB681A4600F06AFA7B681B68602177
:1038D000184600F094FA19E07B6818683B6859684C
:1038E0003B68DB681A4600F02BFA7B681B684021B6
:1038F000184600F084FA09E07B681A683B681B6888
:103900001946104600F07BFA00E000BF7B680122F8
:1039100083F83D207B68002283F83C200023184672
:103920001037BD4680BD000080B485B000AF786020
:1039300039607B681B68FB607B68344A93420FD018
:103940007B68B3F1804F0BD07B68314A934207D03C
:103950007B68304A934203D07B682F4A934208D158
:10396000FB6823F07003FB603B685B68FA681343F5
:10397000FB607B68254A93421BD07B68B3F1804F84
:1039800017D07B68224A934213D07B68214A934226
:103990000FD07B68204A93420BD07B681F4A93422A
:1039A00007D07B681E4A934203D07B681D4A93422E
:1039B00008D1FB6823F44073FB603B68DB68FA685E
:1039C0001343FB60FB6823F080023B685B69134391
:1039D000FB607B68FA681A603B689A687B68DA6209
:1039E0003B681A687B689A627B68084A934203D1F5
:1039F0003B681A697B681A637B6801225A6100BFC1
:103A00001437BD465DF8047B704700BF00000140DD
:103A10000004004000080040000C0040004001404D
:103A2000004401400048014080B487B000AF786096
:103A300039607B681B6A23F001027B681A627B682D
:103A40001B6A7B617B685B683B617B689B69FB6091
:103A5000FB6823F07003FB60FB6823F00303FB604B
:103A60003B681B68FA681343FB607B6923F0020321
:103A70007B613B689B687A6913437B617B681C4A66
:103A800093420CD17B6923F008037B613B68DB68C0
:103A90007A6913437B617B6923F004037B617B6854
:103AA000134A934211D13B6923F480733B613B6914
:103AB00023F400733B613B685B693A6913433B61E4
:103AC0003B689B693A6913433B617B683A695A607A
:103AD0007B68FA689A613B685A687B685A637B68BE
:103AE0007A691A6200BF1C37BD465DF8047B7047D7
:103AF0000000014080B487B000AF786039607B6817
:103B00001B6A23F010027B681A627B681B6A7B6168
:103B10007B685B683B617B689B69FB60FB6823F4A7
:103B2000E043FB60FB6823F44073FB603B681B6869
:103B30001B02FA681343FB607B6923F020037B615F
:103B40003B689B681B017A6913437B617B681E4A53
:103B500093420DD17B6923F080037B613B68DB6876
:103B60001B017A6913437B617B6923F040037B610E
:103B70007B68154A934213D13B6923F480633B6110
:103B80003B6923F400633B613B685B699B003A69D6
:103B900013433B613B689B699B003A6913433B615C
:103BA0007B683A695A607B68FA689A613B685A6830
:103BB0007B689A637B687A691A6200BF1C37BD46CE
:103BC0005DF8047B704700BF0000014080B487B0FF
:103BD00000AF786039607B681B6A23F480727B6871
:103BE0001A627B681B6A7B617B685B683B617B68F0
:103BF000DB69FB60FB6823F07003FB60FB6823F06C
:103C00000303FB603B681B68FA681343FB607B6936
:103C100023F400737B613B689B681B027A69134342
:103C20007B617B681D4A93420DD17B6923F400635D
:103C30007B613B68DB681B027A6913437B617B69AC
:103C400023F480637B617B68144A934213D13B6900
:103C500023F480533B613B6923F400533B613B6891
:103C60005B691B013A6913433B613B689B691B011C
:103C70003A6913433B617B683A695A607B68FA682A
:103C8000DA613B685A687B68DA637B687A691A6232
:103C900000BF1C37BD465DF8047B70470000014043
:103CA00080B487B000AF786039607B681B6A23F40A
:103CB00080527B681A627B681B6A3B617B685B6829
:103CC0007B617B68DB69FB60FB6823F4E043FB609E
:103CD000FB6823F44073FB603B681B681B02FA68B7
:103CE0001343FB603B6923F400533B613B689B68D3
:103CF0001B033A6913433B617B68104A934209D125
:103D00007B6923F480437B613B685B699B017A6933
:103D100013437B617B687A695A607B68FA68DA6171
:103D20003B685A687B681A647B683A691A6200BF0C
:103D30001C37BD465DF8047B704700BF00000140A2
:103D400080B487B000AFF860B9607A60FB681B6A26
:103D50007B61FB681B6A23F00102FB681A62FB6847
:103D60009B693B613B6923F0F0033B617B681B016E
:103D70003A6913433B617B6923F00A037B617A69EB
:103D8000BB6813437B61FB683A699A61FB687A6997
:103D90001A6200BF1C37BD465DF8047B704780B4D3
:103DA00087B000AFF860B9607A60FB681B6A23F0E7
:103DB0001002FB681A62FB689B697B61FB681B6AE7
:103DC0003B617B6923F470437B617B681B037A69E9
:103DD00013437B613B6923F0A0033B61BB681B017C
:103DE0003A6913433B61FB687A699A61FB683A69F7
:103DF0001A6200BF1C37BD465DF8047B704780B473
:103E000085B000AF786039607B689B68FB60FB68B9
:103E100023F07003FB603A68FB68134343F0070329
:103E2000FB607B68FA689A6000BF1437BD465DF896
:103E3000047B704780B487B000AFF860B9607A60E7
:103E40003B60FB689B687B617B6923F47F437B61FC
:103E50003B681A027B681A43BB6813437A691343B1
:103E60007B61FB687A699A6000BF1C37BD465DF8CC
:103E7000047B704780B487B000AFF860B9607A60A7
:103E8000BB6803F01F03012202FA03F37B61FB68A6
:103E90001A6A7B69DB431A40FB681A62FB681A6A7C
:103EA000BB6803F01F03796801FA03F31A43FB6848
:103EB0001A6200BF1C37BD465DF8047B70470000E6
:103EC00080B485B000AF786039607B6893F83C308F
:103ED000012B01D1022350E07B68012283F83C20B2
:103EE0007B68022283F83D207B681B685B68FB606F
:103EF0007B681B689B68BB60FB6823F07003FB60FA
:103F00003B681B68FA681343FB607B681B68FA68B0
:103F10005A607B681B681C4A934218D07B681B68F8
:103F2000B3F1804F13D07B681B68184A93420ED0C0
:103F30007B681B68164A934209D07B681B68154A48
:103F4000934204D07B681B68134A93420CD1BB6830
:103F500023F08003BB603B685B68BA681343BB60B7
:103F60007B681B68BA689A607B68012283F83D20F1
:103F70007B68002283F83C20002318461437BD4696
:103F80005DF8047B704700BF000001400004004062
:103F900000080040000C00400040014080B582B0A5
:103FA00000AF78607B68002B01D101233FE07B6884
:103FB00093F83930DBB2002B06D17B68002283F8FE
:103FC00038207868FEF77EF97B68242283F8392050
:103FD0007B681B68DA687B681B6822F40052DA6031
:103FE000786800F00BF97B681B681A697B681B68AE
:103FF00022F490421A617B681B685A697B681B68CF
:1040000022F02A025A617B681B68DA687B681B68A9
:1040100042F40052DA607B680022DA637B68202277
:1040200083F839207B68202283F83A200023184641
:104030000837BD4680BD80B588B002AFF860B96072
:104040003B601346FB8000237B61FB6893F83930AB
:10405000DBB2202B40F08380BB68002B02D0FB88B2
:10406000002B01D101237BE0FB6893F83830012B52
:1040700001D1022374E0FB68012283F83820FB6839
:104080000022DA63FB68212283F83920FEF790FAD8
:104090007861FB68FA889A84FB68FA88DA84FB689E
:1040A000002283F8382042E0FB68DB8C9BB2013BA6
:1040B0009AB2FB68DA84FB689B68B3F5805F22D113
:1040C0003B6800937B6900228021F86800F04CF87F
:1040D0000346002B01D0032342E0BB683B613B69F0
:1040E0001B881A46FB681B68C2F308025A60FB680B
:1040F0001B69002B03D1BB680233BB6017E0BB68B0
:104100000133BB6013E03B6800937B690022802190
:10411000F86800F029F80346002B01D003231FE0C4
:10412000BB685A1CBA601A78FB681B685A60FB6847
:10413000DB8C9BB2002BB7D13B6800937B690022DC
:104140004021F86800F010F80346002B01D003234B
:1041500006E0FB68202283F83920002300E00223D8
:1041600018461837BD4680BD80B584B000AFF860F2
:10417000B9603B601346FB712CE0BB69B3F1FF3FB4
:1041800028D0BB69002B07D0FEF712FA02463B6825
:10419000D31ABA699A421DD2FB681B68DA68FB68B9
:1041A0001B6822F4D072DA60FB681B685A69FB68EE
:1041B0001B6822F001025A61FB68202283F8392033
:1041C000FB68202283F83A20FB68002283F838201D
:1041D00003230FE0FB681B681A68BB681340BA68CA
:1041E0009A420CBF01230023DBB21A46FB799A42A4
:1041F000C3D0002318461037BD4680BD2DE9F04FCF
:1042000085B000AF78607B681B681B6923F4405160
:104210007B68DA687B681B680A431A617B689A6866
:104220007B681B691A437B685B691A437B68DB699F
:104230001343FB607B681B68DB6823F4164323F0A1
:104240000C037A681268F9680B43D3607B681B68BB
:104250005B6923F440717B689A697B681B680A4339
:104260005A617B68DB69B3F5004F40F08B817B6856
:104270001B68C14A934205D07B681B68BF4A9342C2
:1042800040F0BD80FFF708F9B860BB681D464FF0ED
:104290000006A846B14618EB080349EB0904984606
:1042A000A14618EB050849EB06094FF000014FF055
:1042B00000024FEAC90242EA58724FEAC801884632
:1042C000914618EB050049EB06017B685B681D46CB
:1042D0004FF000066B1946EB06041A462346FCF71E
:1042E00025FC03460C461A46A54BA3FB02235B099B
:1042F0004FEA0318BB681D464FF00006A946B246B8
:1043000019EB09034AEB0A049946A24619EB050981
:104310004AEB060A4FF000014FF000024FEACA02D2
:1043200042EA59724FEAC9018946924619EB0500E3
:104330004AEB06017B685B681D464FF000066B196F
:1043400046EB06041A462346FCF7F0FB03460C46F0
:104350001A468B4BA3FB02135B09642101FB03F399
:10436000D31ADB003233864AA2FB03235B095B00CE
:1043700003F4F8739844BB681D464FF00006A94645
:10438000B24619EB09034AEB0A049946A24619EB17
:1043900005094AEB060A4FF000014FF000024FEA10
:1043A000CA0242EA59724FEAC9018946924619EB9C
:1043B00005004AEB06017B685B681D464FF000066E
:1043C0006B1946EB06041A462346FCF7AFFB03467F
:1043D0000C461A466A4BA3FB02135B09642101FBDE
:1043E00003F3D31ADB003233654AA2FB03235B09D4
:1043F00003F007027B681B6842449A606FE2FFF794
:1044000037F8B860BB681D464FF00006A846B146B5
:1044100018EB080349EB09049846A14618EB050878
:1044200049EB06094FF000014FF000024FEAC902C4
:1044300042EA58724FEAC8018846914618EB0500D7
:1044400049EB06017B685B681D464FF000066B195F
:1044500046EB06041A462346FCF768FB03460C4667
:104460001A46474BA3FB02235B094FEA0318BB68BC
:104470001D464FF00006A946B24619EB09034AEB68
:104480000A049946A24619EB05094AEB060A4FF0C1
:1044900000014FF000024FEACA0242EA59724FEAA5
:1044A000C9018946924619EB05004AEB06017B6873
:1044B0005B681D464FF000066B1946EB06041A4672
:1044C0002346FCF733FB03460C461A462C4BA3FB52
:1044D00002135B09642101FB03F3D31ADB003233BF
:1044E000274AA2FB03235B095B0003F4F87398449B
:1044F000BB681D464FF00006A946B24619EB0903FA
:104500004AEB0A049946A24619EB05094AEB060A4A
:104510004FF000014FF000024FEACA0242EA59721E
:104520004FEAC9018946924619EB05004AEB06019C
:104530007B685B681D464FF000066B1946EB06046E
:104540001A462346FCF7F2FA03460C461A460C4B71
:10455000A3FB02135B09642101FB03F3D31ADB0005
:104560003233074AA2FB03235B0903F007027B688F
:104570001B6842449A60B2E10010014000140140FF
:104580001F85EB517B681B68D74A934205D07B6837
:104590001B68D64A934240F0D180FEF77DFFB86099
:1045A000BB689A464FF0000BD046D94618EB08037B
:1045B00049EB09049846A14618EB0A0849EB0B0998
:1045C0004FF000014FF000024FEAC90242EA587270
:1045D0004FEAC801884691461AEB08054BEB0906DD
:1045E0007B685B6819464FF000024FF000034FF004
:1045F0000004940044EA91748B001A46234628462E
:104600003146FCF793FA03460C461A46B84BA3FB17
:1046100002235B094FEA0318BB689B464FF0000C6E
:10462000D946E24619EB09034AEB0A049946A24629
:1046300019EB0B094AEB0C0A4FF000014FF0000296
:104640004FEACA0242EA59724FEAC90189469246C4
:104650001BEB09054CEB0A067B685B6819464FF0BB
:1046600000024FF000034FF00004940044EA9174FC
:104670008B001A46234628463146FCF757FA034674
:104680000C461A469A4BA3FB02135B09642101FBFB
:1046900003F3D31A1B013233954AA2FB03235B09B0
:1046A00003F0F0039844BB689B464FF0000CD946DA
:1046B000E24619EB09034AEB0A049946A24619EBB4
:1046C0000B094AEB0C0A4FF000014FF000024FEAD1
:1046D000CA0242EA59724FEAC901894692461BEB67
:1046E00009054CEB0A067B685B6819464FF000022F
:1046F0004FF000034FF00004940044EA91748B00E3
:104700001A46234628463146FCF710FA03460C4663
:104710001A46774BA3FB02135B09642101FB03F3E9
:10472000D31A1B013233724AA2FB03235B0903F045
:104730000F027B681B6842449A60D0E0FEF798FE47
:10474000B860BB689A464FF0000BD046D94618EBCC
:10475000080349EB09049846A14618EB0A0849EBFF
:104760000B094FF000014FF000024FEAC90242EA84
:1047700058724FEAC801884691461AEB08054BEB80
:1047800009067B685B6819464FF000024FF0000392
:104790004FF00004940044EA91748B001A462346BB
:1047A00028463146FCF7C2F903460C461A46504BE0
:1047B000A3FB02235B094FEA0318BB689B464FF03B
:1047C000000CD946E24619EB09034AEB0A04994664
:1047D000A24619EB0B094AEB0C0A4FF000014FF00F
:1047E00000024FEACA0242EA59724FEAC9018946F9
:1047F00092461BEB09054CEB0A067B685B68194681
:104800004FF000024FF000034FF00004940044EA20
:1048100091748B001A46234628463146FCF786F9E8
:1048200003460C461A46324BA3FB02135B09642174
:1048300001FB03F3D31A1B0132332D4AA2FB0323DE
:104840005B0903F0F0039844BB689B464FF0000CF3
:10485000D946E24619EB09034AEB0A049946A246F7
:1048600019EB0B094AEB0C0A4FF000014FF0000264
:104870004FEACA0242EA59724FEAC9018946924692
:104880001BEB09054CEB0A067B685B6819464FF089
:1048900000024FF000034FF00004940044EA9174CA
:1048A0008B001A46234628463146FCF73FF903465B
:1048B0000C461A460E4BA3FB02135B09642101FB55
:1048C00003F3D31A1B013233094AA2FB03235B090A
:1048D00003F00F027B681B6842449A60FFE700BF49
:1048E0001437BD46BDE8F08F0010014000140140B0
:1048F0001F85EB51014B1868704700BF480000202E
:1049000070B50D4E0D4CA41BA4100025A54209D175
:104910000B4E0C4C00F026FCA41BA4100025A54255
:1049200005D170BD56F8253098470135EEE756F8A9
:10493000253098470135F2E7F8510008F851000892
:10494000F8510008FC51000802440346934200D18C
:10495000704703F8011BF9E70EB400B59CB01DAB1E
:10496000029006906FF000410948079104910949AF
:1049700053F8042B05910068019302A900F066F832
:10498000029B00221A701CB05DF804EB03B0704764
:10499000480000200802FFFF2DE9F0478E689E4284
:1049A00082460C469046994637D88A8912F4906F11
:1049B00031D0256809696F1A6569022305EB450541
:1049C00095FBF3F509F101033B449D4238BF1D46B9
:1049D000530530D5294600F02BFB064650B90C2371
:1049E000CAF80030A38943F04003A3814FF0FF30A1
:1049F000BDE8F0873A46216900F0A8FAA38923F4BC
:104A0000906343F08003A381266165613E44ED1B02
:104A10002660A5604E464E4500D94E463246414678
:104A2000206800F09EFAA3689B1BA36023681E44C5
:104A300026600020DCE72A4600F054FB06460028EA
:104A4000E2D12169504600F0A5FAC8E72DE9F04F00
:104A50001D468B891F069DB080460C4616460FD515
:104A60000B696BB9402100F0E3FA2060206128B99E
:104A70000C23C8F800304FF0FF30C8E040236361DA
:104A80000023099320238DF8293030238DF82A3014
:104A900003954FF0010B37463D4615F8013B0BB12E
:104AA000252B3ED1B7EB060A0BD0534632462146A2
:104AB0004046FFF771FF013000F0A480099B53448A
:104AC00009933B78002B00F09D8000234FF0FF32CC
:104AD000CDE90523049307938DF853301A932F469D
:104AE000052217F8011B5048FBF77AFB049BD0B94D
:104AF000D90644BF20228DF853201A0744BF2B2229
:104B00008DF853202A782A2A15D0079A2F4600209C
:104B10000A25394611F8013B303B092B4DD9B8B174
:104B20000FE02F46B8E7404A801A0BFA00F018430E
:104B300004903D46D3E7039A111D12680391002AA1
:104B400001DB079204E0524243F002030792049310
:104B50003B782E2B0CD17B782A2B33D1039B1A1D4B
:104B60001B680392002BB8BF4FF0FF330237059349
:104B70002E4D397803222846FBF732FB38B140230B
:104B8000401B03FA00F0049B034301370493397878
:104B900027488DF8281006227E1CFBF721FB0028F1
:104BA00038D0244B13BB039B073323F00703083390
:104BB0000393099B4B4409936DE705FB02320120E7
:104BC0000F46A6E700230137059319460A25384604
:104BD00010F8012B303A092A03D9002BC8D00591CF
:104BE000C6E705FB012101230746F0E703AB00936D
:104BF0002246114B04A94046AFF30080B0F1FF3FBD
:104C00008146D6D1A3895B063FF535AF09981DB023
:104C1000BDE8F08F03AB00932246074B04A9404642
:104C200000F082F8EAE700BFBC510008C25100085A
:104C3000C651000800000000994900082DE9F0471E
:104C400091461F468A680B69DDF820809342B8BF01
:104C50001346C9F8003091F8432006460C4612B1BD
:104C60000133C9F800302368990642BFD9F80030F3
:104C70000233C9F80030256815F0060507D104F1A4
:104C8000190AE368D9F800209B1AAB4228DC94F893
:104C900043302268003318BF012392062DD404F15B
:104CA000430239463046C047013020D02368E568CA
:104CB000D9F8002003F00603042B08BFAD1AA3683F
:104CC00022690CBF25EAE57500259342C4BF9B1AF3
:104CD000ED184FF000091A344D451AD1002008E0B4
:104CE0000123524639463046C047013003D14FF0C8
:104CF000FF30BDE8F0870135C3E7E1185A1C3020CA
:104D000081F84300224494F8451082F8431002339E
:104D1000C5E70123224639463046C0470130E6D078
:104D200009F10109D8E700002DE9F04301F1430C36
:104D30000C46097E85B06E291746064698460C9AA1
:104D400000F0B38022D8632936D00AD8002900F0B9
:104D5000B980582900F0838004F1420584F842109C
:104D600032E0642901D06929F6D12068136805066C
:104D700003F104012AD51B681160002B03DA2D22F0
:104D80005B4284F843206F480A2239E0732900F01F
:104D90009D8008D86F2920D07029DDD1236843F089
:104DA0002003236003E0752917D07829D4D1782314
:104DB00084F84530644855E01368191D1B6811607C
:104DC00004F1420584F8423001238CE01B68116035
:104DD00010F0400F18BF1BB2CFE713682568181DED
:104DE0001060280601D51B6802E06806FBD51B8809
:104DF00054486F2914BF0A220822002184F8431066
:104E00006568A560002DC0F29580216821F004013D
:104E10002160002B3DD1002D40F08E806546082A90
:104E20000BD12368DB0708D5236962689A42DEBF8D
:104E3000302305F8013C05F1FF35ACEB0503236198
:104E4000CDF800803B4603AA21463046FFF7F6FE28
:104E500001304DD14FF0FF3005B0BDE8F083394847
:104E600084F84510136821681D1D1B6815600A062B
:104E70000BD5CA0744BF41F0200121601BB922684D
:104E800022F0200222601022B7E74D0648BF9BB2F5
:104E9000EFE76546B3FBF2F102FB1133C35C05F8A3
:104EA000013D0B460029F5D1B9E713682568616912
:104EB000181D106028061B6801D5196002E06A06FB
:104EC000FBD51980002323616546B9E71368191DD6
:104ED00011601D68626800212846FBF781F908B15E
:104EE000401B606063682361002384F84330A7E7B8
:104EF00023692A4639463046C0470130AAD0236884
:104F00009B0713D4E068039B9842B8BF1846A3E7F9
:104F100001234A4639463046C04701309AD0013510
:104F2000E368039A9B1AAB42F2DCEBE7002504F13D
:104F30001909F5E7002BACD1037884F8423004F16D
:104F400042056CE7CD510008DE51000810B5431E44
:104F50000A44914200D110BD11F8014B03F8014FF2
:104F6000F7E7884210B501EB020307D8421E9942C9
:104F70000AD011F8014B02F8014FF8E78342F5D946
:104F80008118D21AD34200D110BD13F8014D01F897
:104F9000014DF7E738B50546002945D051F8043CE6
:104FA0000C1F002BB8BFE41800F0D2F81F4A13689A
:104FB000104633B9636014602846BDE8384000F0FD
:104FC000C8B8A3420CD921686218934204BF1A687A
:104FD0005B68636004BF521822600460ECE713460C
:104FE0005A680AB1A242FAD919685818A0420BD1DE
:104FF00020680144581882421960DDD11068526857
:105000005A6001441960D7E702D90C232B60D3E71B
:10501000206821188A4204BF11685268626004BF88
:10502000091821605C60C7E738BD00BFE0000020C0
:1050300070B5CD1C25F0030508350C2D38BF0C25A7
:10504000002D064601DBA94203D90C233360002062
:1050500070BD00F07DF8214A1468214691B9204CBA
:1050600023681BB9304600F063F8206029463046BB
:1050700000F05EF8431C24D10C233360304600F06E
:1050800068F8E4E70B685B1B18D40B2B0FD90B6097
:10509000CD50CC18304600F05CF804F10B00231D15
:1050A00020F00700C31AD3D05A42E250D0E78C4216
:1050B0004B6816BF636013600C46EBE70C4649680B
:1050C000CCE7C41C24F00304A04205D0211A3046CA
:1050D00000F02EF80130CFD02560DBE7E0000020A3
:1050E000E4000020F8B5074614460E4621B91146E3
:1050F000BDE8F840FFF79CBF22B9FFF74BFF2546FC
:105100002846F8BD00F026F8A0420FD221463846C6
:10511000FFF78EFF05460028F2D031462246FFF702
:1051200015FF31463846FFF735FFE9E73546E7E733
:1051300038B5064C0023054608462360FDF75CF9A8
:10514000431C02D1236803B12B6038BD2C02002020
:105150007047704751F8043C181F002BBCBF0B5818
:10516000C0187047F8B500BFF8BC08BC9E46704731
:0C517000F8B500BFF8BC08BC9E467047B4
:10517C005025643A202564206665657400000000A3
:10518C005025643A20256420736563005025643AE9
:10519C002025640D0A0D0A0000000000000000002C
:1051AC0001020304060708090000000001020304C1
:1051BC00232D302B2000686C4C00656667454647F4
:1051CC000030313233343536373839414243444577
:1051DC0046003031323334353637383961626364E6
:0451EC0065660000F4
:0851F0006CB9FF7F0100000013
:0451F800C5010008E5
:0451FC00A101000805
:10520000030000004C6F636B65640D0A0000000032
:105210004F70656E3A3020436C6F7365643A310DA0
:105220000A00000053657475700D0A0052756E0D0A
:105230000A000202050101FE010200000024F40040
:1052400010000000010000004C00002000000000E1
:10525000000000000000000000000000000000004E
:10526000000000000000000000000000000000003E
:10527000000000000000000000000000000000002E
:10528000000000000000000000000000000000001E
:10529000000000000000000000000000000000000E
:0C52A00000000000000000000000000002
:04000005080024913A
:00000001FF
